:020000040000FA
:0400000039EF08F0DC
:08000800056ED8CF06F0E0CF31
:1000100007F00001E9CF0DF0EACF08F0E1CF09F0D9
:10002000E2CF0AF0D9CF0BF0DACF0CF0F3CF14F017
:10003000F4CF15F0FACF16F000C00FF001C010F0A9
:1000400002C011F003C012F004C013F0A0AA2CEFFC
:1000500000F0A1BAC5EF06F00FC000F010C001F02B
:1000600011C002F012C003F013C004F00E8E0DC0D8
:10007000E9FF08C0EAFF09C0E1FF0AC0E2FF0BC0C8
:10008000D9FF0CC0DAFF14C0F3FF15C0F4FF16C08F
:10009000FAFF055007C0E0FF06C0D8FF1000F76A5E
:1000A000AE0FF66E000EF7220900F55012000403A1
:1000B0000100000000000000000000000000F76ADE
:1000C000CE0FF66E000EF7220900F5501200040064
:1000D0000100000000000000000000000000F76ABE
:1000E000EE0FF66E000EF7220900F55012004000E8
:1000F00008004000000000000000000000000000B8
:100100000000000000000000000000000000F76A8E
:100110001E0FF66E010EF7220900F5501200400086
:10012000000040000000000000000000000000008F
:100130000000000000000000000000000000F76A5E
:100140004E0FF66E010EF7220900F550120009025B
:100150004300020100C03209040000010202010054
:1001600005240010010424020205240600010524D0
:10017000010001070581030800FA09040100020AD1
:10018000000000070502024000FA07058202400055
:10019000FA00F76AA20FF66E010EF7220900F55079
:1001A00012000200F76AB40FF66E010EF722090082
:1001B000F5501200120110010200004061043300EA
:1001C000000101020001F76AD60FF66E010EF72258
:1001D0000900F5501200040309040803430043001A
:1001E00053001E03430043005300200052005300FD
:1001F0003200330032002000440065006D006F00C3
:100200006D9269946894D0EF06F06A6A6892D9EFAB
:1002100006F02C6A2B6A250E2A6E800E296E2D6A36
:100220002E6A080E2F6E7F6B7A93316A306A7B6B71
:100230007C917A81000CA96BA95101080AE3036A39
:10024000A951270FE96E000E0320EA6EEF6AA92B71
:10025000F3D7DFDF1A6A010E1B6E196A000C010E5C
:10026000B26FB2510F080EE3700EB225016E0F0E81
:10027000036ED8B0032A01C0E9FF03C0EAFFEF6AAA
:10028000B22BEFD71E6A1D6A000C400E0401016FED
:10029000050E036F026B880E006F046B050E076F6F
:1002A000400E066F0001000C6A6A686A9F0E6B6E52
:1002B000390E696E6E6ABFDFD2DF160E706E68A6E9
:1002C00002D06896FCD76D98E0DF030E1F6EDFEF5B
:1002D00006F0698468986D82E5EF06F0689CEBEFA4
:1002E00006F070A002D0D1DF7090689AF1EF06F0AE
:1002F000ADC020F0000CFF0E206E000CAB6B265240
:1003000035E0AB513F0832E31C5005E0020A0DE036
:10031000010A15E01ED0036A2550F2CFADF0F29E1F
:100320000EDFADBFF28EAC6F14D0036A2550F2CF52
:10033000ADF0F29E48DFADBFF28EAC6F0AD0036A1B
:100340002550F2CFADF0F29E2DDFADBFF28EAC6F37
:1003500000D0252A2606AB51AB2B036A400FE96E6D
:10036000050E0320EA6EACC0EFFFC9D7265204E1A8
:10037000AB51400801E0196AABC0ADF0B9DF000C29
:10038000256A1C6A05010351010A000105E0030A00
:1003900008E0010A09E01FD0120E266E030E1C6E43
:1003A0001CD0430E266E19D0020E1C6E036A050186
:1003B0000251210FE96E000E0320EA6EEFCF25F007
:1003C000036A2550F2CFAAF0F29E0001FCDEAABF1C
:1003D000F28E266E02D08FDF0CD00501075305E1A7
:1003E0002650065D02E206C526F0010E196E0001D8
:1003F00085DF13EF03F0AA5304E1040E1F6E2FDF15
:10040000C1D0050E1F6EAD6F800EAC6F010EAB6FCD
:10041000AB510F08D8A0B6D0AE6B036AAB51F2CF88
:10042000B2F0F29E4CDEB2BFF28E000A51E0040E32
:10043000AE6FD890AB35036AF2CFB2F0F29E67DEB2
:100440000900F5CF03F0B2BFF28EAF6F03C0B0F07A
:10045000AB51080DF350010F016E040E036ED8B0BE
:10046000032A01C0E9FF03C0EAFFAFC0EFFFAB51B1
:10047000080DF350020F016E040E036ED8B0032A6C
:1004800001C0E9FF03C0EAFFADC0ECFFED52ACC014
:10049000EFFFD890AB35036AF2CFB2F0F29E37DEB1
:1004A0000900F5CF03F0B2BFF28EAC270350AD23A5
:1004B000880EB16FB0B1B181B0B3B183AB51080D4B
:1004C000F3CF01F0040E01C0E9FFEA6EB1C0EFFF07
:1004D000036AAB51F2CFB2F0F29EE1DDB2BFF28E11
:1004E000000A31E0AE83AB51080DF350060F016EE8
:1004F000040E036ED8B0032A01C0E9FF03C0EAFF6F
:10050000ADC0ECFFED52ACC0EFFFD890AB35036A45
:10051000F2CFB2F0F29EE3DD0900F5CF03F0B2BFF7
:10052000F28EAC270350AD23AB51080DF350040FEE
:10053000016E040E036ED8B0032A01C0E9FF03C0A8
:10054000EAFF400EEF6EAE51060802E10E0EAE6FEE
:10055000036AAB51F2CFB2F0F29EA1DDB2BFF28ED0
:10056000020801E0AE89700EAB25016E0F0E036E1E
:10057000D8B0032A01C0E9FF03C0EAFFAEC0EFFF15
:10058000AB2B46D70DEF03F00501015100010DE043
:10059000010A14E0020A1EE0060A27E0030A2CE022
:1005A0000E0A2BE0010A2FE03CD01BC040F50501EC
:1005B000416B020E0001AD6F9BDE35D00501022DAF
:1005C00006D0010E1B160001AD6B92DE02D00001B9
:1005D00092DE29D00501022D05D01B820001AD6BF2
:1005E00087DE02D0000187DE1ED0020E196E02C522
:1005F00024F0AD6B7DDE17D0C3D61AC040F5010ED6
:10060000AD6F76DE10D005010251010808E302C586
:100610001AF002C5AAF00001EED6AD6B69DE00014A
:1006200002D069DE00D08BEF04F01AC0AAF00501F9
:100630000151000105E00A0A0BE0010A2BE03CD061
:100640000501406B416B020E0001AD6F51DE36D0EB
:10065000AA531EE0010EAA5D036AF2CFACF0F29E2F
:1006600098DDACBFF28E016E0501045DD8A002D00A
:1006700000010ED0036A0451270FE96E000E03201B
:10068000EA6EEFCF40F5010E0001AD6F31DE01D013
:1006900032DE14D0AA530EE0036A05010451270F7D
:1006A000E96E000E0320EA6E02C5EFFF0001AD6B9C
:1006B0001FDE01D020DE02D01EDE00D08BEF04F062
:1006C000AB91AABFAB81AA9FABA110D0036AAA517C
:1006D000F2CFACF0F29EE3DCACBFF28E000A02E196
:1006E000000E01D0010E016E10D00FD0036AAA5186
:1006F000F2CFACF0F29EE3DCACBFF28E000A02E176
:10070000000E01D0010E016E00D0F7EF03F0AB91A7
:10071000AABFAB81AA9FABA110D0AA51080DF3507C
:10072000040F016E040E036ED8B0032A01C0E9FF66
:1007300003C0EAFF880EEF6E09D0AA51080DF3CF6F
:1007400001F0040E01C0E9FFEA6EEF6A06EF04F063
:10075000AB91AABFAB81AA9FABA110D0AA51080D43
:10076000F350040F016E040E036ED8B0032A01C0CB
:10077000E9FF03C0EAFF840EEF6E0AD0AA51080D0C
:10078000F3CF01F0040E01C0E9FFEA6E840EEF6EB4
:100790000CEF04F0AB91AABFAB81AA9FABA110D024
:1007A000AA51080DF350040F016E040E036ED8B069
:1007B000032A01C0E9FF03C0EAFFEFCFACF00AD083
:1007C000AA51080DF3CF01F0040E01C0E9FFEA6E53
:1007D000EFCFACF0ACAF02D0ACB502D0000E01D080
:1007E000010E016E16EF04F004C5AAF069D701529C
:1007F00029E005010151010A000105E0020A09E0B2
:10080000030A0DE01DD004C5AAF081D7AD6B70DDE1
:1008100019D004C5AAF09CD7AD6B6ADD13D00501D1
:10082000406B416B04C5AAF00001B4D7015204E04B
:10083000010E0501406F0001020EAD6F59DD02D0BF
:100840005ADD00D08BEF04F0FE0E206E000C050187
:10085000042D01D002D0045348E1015100010BE006
:10086000010A0DE0210A1CE0010A1FE0030A2EE044
:10087000010A31E037D0010E806FE6DF35D0050E7A
:10088000EA6E400EE96EE26A320EE16E080E016E0B
:10089000E6CFEEFF012EFCD706C5ADF029DD24D052
:1008A000020E806F7A83D0DF1FD0050EEA6E400EF5
:1008B000E96EE26A290EE16E070E016EE6CFEEFFE9
:1008C000012EFCD7070EAD6F13DD0ED002C57FF0F1
:1008D000AD6B0EDD09D002C531F003C530F0AD6B54
:1008E00007DD02D008DD00D0050100018BEF04F028
:1008F000196A050100517F0B000107E0010A06E0BB
:10090000030A05E0230A04E004D03ED68ED66CD755
:100910009ED7F1DC00D070EF06F0AA51080DF3CF9E
:1009200001F0040E01C0E9FFEA6EEFCFACF0AB516D
:10093000020806E1ACAD02D0AB6B02D0010EAB6F8A
:10094000AB51030812E1840EAC6FAA51080DF350AD
:10095000040F016E040E036ED8B0032A01C0E9FF34
:1009600003C0EAFF840EEF6E09D0AB2D03D0C80E92
:10097000AC6F04D0AB5302E1880EAC6F036A010E7A
:10098000026EAA51006E05E0D89002360336002EA2
:10099000FBD70250FF0A006EFF0E031A00501D160F
:1009A00003501E16D890AA35036AF2CFAFF0F29E1C
:1009B00087EC00F00900F5CF03F0AFBFF28EAD6F0A
:1009C00003C0AEF0AA51080DF350010F016E040EE2
:1009D000036ED8B0032A01C0E9FF03C0EAFFADC02F
:1009E000EFFFAEB1AC81AEB3AC83AA51080DF3CF2B
:1009F00001F0040E01C0E9FFEA6EACC0EFFF000C8D
:100A0000B651080DF350040F016E040E036ED8B0FA
:100A1000032A01C0E9FF03C0EAFFEFCFBAF0BABF73
:100A20005BD0B651080DF350050F016E040E036E36
:100A3000D8B0032A01C0E9FF03C0EAFFB7C0EFFF47
:100A4000B951020816E1B651080DF350040F016EBA
:100A5000040E036ED8B0032A01C0E9FF03C0EAFF09
:100A6000EFCFBAF0BAAD02D0B96B02D0010EB96FB8
:100A700013D0B951040810E1B651080DF3CF01F0BD
:100A8000040E01C0E9FFEA6EEFCFBAF0BAAD03D0B1
:100A9000010EB96F01D0B96BB92D03D0C80EBA6F72
:100AA00004D0B95302E1880EBA6FB8B1BA81B8B3B5
:100AB000BA83B651080DF350040F016E040E036E95
:100AC000D8B0032A01C0E9FF03C0EAFFBAC0EFFFB4
:100AD000010E016E03D000D0000E016E000C80519B
:100AE000010A03E0030A12E022D0EA6A320EE96E3C
:100AF000050EE26EE16A080E016EE6CFEEFF012EF2
:100B0000FCD7AD6B78EC01F0806B15D0EA6A290E4A
:100B1000E96E050EE26EE16A070E016EE6CFEEFFAA
:100B2000012EFCD7806BAD6B78EC01F004D0806BAC
:100B300045EC01F000D0BDEF05F0AB51080DF350CE
:100B4000010F016E040E036ED8B0032A01C0E9FF45
:100B500003C0EAFF036AEFCF01F003C002F0B6EF73
:100B600005F07C817E6B020EAB6FE7D701C07DF094
:100B7000C2EF05F0AA5302E1B2D714D0AA5102087D
:100B800002E1EFD70FD0036A010E026EAA51006E88
:100B900005E0D89002360336002EFBD702501D1216
:100BA00003501E12000CABC06EFFAB5303E0040EEB
:100BB0001F6E02D0020E1F6EE3EF05F01A6A196A6B
:100BC00024C0ABF0F0D75AEF06F0AB51080DF3504C
:100BD000040F016E040E036ED8B0032A01C0E9FFB2
:100BE00003C0EAFFEFCFB3F0B3BF3FD0AB51080D66
:100BF000F350060F016E040E036ED8B0032A01C035
:100C0000E9FF03C0EAFFECCF03F0ED52EFCFB4F001
:100C100003C0B5F0B26BB16BB251AF5D1AE303E143
:100C2000AE51B15D16E2ACC0E9FFADC0EAFFEFCF57
:100C3000B8F0B5C0EAFFB4C0E9FFB8C0EFFFB42B0D
:100C4000D8B4B52BAC2BD8B4AD2BB12BD8B4B22BB8
:100C5000E3D7ABC0B6F0AFC0B8F0AEC0B7F0B0C02D
:100C6000B9F0CEDE015003D000D0000E016E000CB2
:100C70007B530DE07A91020EAB6FAD6B3A0EAC6F09
:100C8000AF6B7BC0AEF0020EB06F9FDF7B6B000CD2
:100C90007B5302E0EDDF01D07A815FEF06F0AA53CB
:100CA0000AE1192C03D07EEC01F004D0195002089F
:100CB00001E184D704D0AA51020801E1E9D7000C70
:100CC0006C30A96FA933A9331F0EA9176C523BE1F1
:100CD000040100513C0B34081BE1046B000108D6F1
:100CE000203C05D0AA6B030EAB6F17DE0ED0AA6BAB
:100CF000020EAB6F12DE2050FE0807E0B66BB86B39
:100D000020C0B7F0040EB96F7BDE6D9819D00401D6
:100D100000513C0B040815E10001AA6B2BDFAA6B04
:100D2000020EAB6FFADD2050FE080AE0203C01D035
:100D300007D0B66BB86B20C0B7F0010EB96F60DE9C
:100D4000040120D000016C50040812E1FF0E206E57
:100D5000AA6BA5DF203C01D008D0B66BB86B20C0D1
:100D6000B7F0020EB96F4CDE02D045EC01F009D0AD
:100D70006CB404D0A9C0AAF0FDDE03D0A9C0AAF0CB
:100D80008EDF04010001F6EF06F01F5201E12FD0C3
:100D900068522DE068A404D069A402D000EF01F0ED
:100DA0006DA201D024D068A204D069A202D005EFC0
:100DB00001F068A004D069A002D054EF01F068A847
:100DC00004D069A802D069EF01F068AC04D069AC26
:100DD00002D06EEF01F068AA04D069AA02D071EFC8
:100DE00001F068A604D069A602D06AD76896A19AD5
:100DF0002CEF00F06D6A696A080E6F6E945030092E
:100E0000946E1F6A186AF2BE188EF29E1BEC01F0F7
:100E100018BEF28E1E6A1D6A31EF07F0186AF2BE24
:100E2000188EF29E1BEC01F018BEF28E6D6A140E45
:100E30006F6E696A6D86010E1F6E22EF07F06DB648
:100E400001D0ECD71F2C0BD06DBA09D0686A696A43
:100E5000A08AC00EF212110E696E020E1F6E000CF7
:100E6000C9D7EDDF1F500208FCE15BEF08F0EA6A2A
:100E70008B0EE96EEF500EE00F0E016E006A002E31
:100E8000FED7012EFBD78F0E006E002EFED700007E
:100E9000EF2EF2D773EF08F0010E8C5F0CE3EA6AD5
:100EA0008C0EE96EEF5007E0020E006E002EFED7AA
:100EB00000D0EF2EF9D7000CEACF93F0E9CF92F0F3
:100EC0008C39F0098E6F8E27E20F8F6F320F916F82
:100ED0008C510F0B8F278F279127E90F906F902749
:100EE00090278B390F0B9027912790379137911FBF
:100EF00091378B510F0B91278E37070E8D6F0A0E8E
:100F000090079127FDE38F079027FDE38E078F273A
:100F1000FDE38D078E27FDE3EA6A8D0EE96E070E6D
:100F20009215929DE926910EE95CD8B4928DEF500E
:100F3000006E08E192BD06D092B90CD092B702D0F3
:100F4000200E03D092879299300E002600509EA862
:100F5000FED7AD6EEE5092ADE6D7000C9691F2BE84
:100F60009681F29E7B513F0802E23F0E7B6F7B51E0
:100F70007B2B036A3A0FE96E000E0320EA6E95C0E0
:100F8000EFFFF29E96B1F28E7AA107D0186AF2BEF8
:100F9000188EF29E6DDE18BEF28EDFEF07F07B51E9
:100FA0003F080AE27AA107D0186AF2BE188EF29EB4
:100FB0005FDE18BEF28EF3D794C095F0CFD7000C49
:100FC000EACF93F0E9CF92F08C39F0098E6F8E273B
:100FD000E20F8F6F320F916F8C510F0B8F278F277E
:100FE0009127E90F906F902790278B390F0B90274F
:100FF000912790379137911F91378B510F0B912784
:101000008E37070E8D6F0A0E90079127FDE38F072D
:101010009027FDE38E078F27FDE38D078E27FDE3E5
:10102000EA6A8D0EE96E070E9215929DE926910EE1
:10103000E95CD8B4928DEF50006E08E192BD06D005
:1010400092B913D092B702D0200E03D09287929912
:10105000300E0026EACF8CF0E9CF8BF000C094F080
:101060009EDF8CC0EAFF8BC0E9FFEE5092ADDFD768
:10107000000CF86AD09E0D8EEA6AE96AB886E10E25
:10108000AF6E040EB06EA60EAC6E900EAB6EC1507D
:10109000C00B0F09C16E070EB46E1F6A216A040EE1
:1010A000226E0C0E236E266A7B6B806B866B856BC3
:1010B00009EC01F0D5D67AB301D0FDD7C0DE1A52C3
:1010C00001E1FDD7C150C00BC16EC080C082C08499
:1010D000C08EC280000E016EC250C30B0110C26EE2
:1010E000320E8B6FC4D6000E016EC250C30B0110BE
:1010F000C26E500E8C6FD0DEC282C2B2FED7C3CF9A
:1011000081F0C4CF82F0020E8B6FFA0E8C6FC4DEBA
:101110008B2FFBD7E80E8125836F030E8221846F0E
:10112000040E016EC250C30B0110C26E500E8C6FC4
:10113000B3DEC282C2B2FED7C3CF81F0C4CF82F089
:10114000020E8B6FFA0E8C6FA7DE8B2FFBD7E80E8B
:101150008125856F030E8221866F080E016EC250B5
:10116000C30B0110C26E500E8C6F96DEC282C2B2EB
:10117000FED7C3CF81F0C4CF82F0020E8B6FFA0E80
:101180008C6F8ADE8B2FFBD7E80E8125876F030ECD
:101190008221886F0C0E016EC250C30B0110C26E0B
:1011A000500E8C6F79DEC282C2B2FED7C3CF81F0FF
:1011B000C4CF82F0020E8B6FFA0E8C6F6DDE8B2F18
:1011C000FBD7E80E8125896F030E82218A6F2A0ED4
:1011D0009EA8FED7AD6E7C0E9EA8FED7AD6E100EFB
:1011E000E96E84C08CF083C08BF066DE7C0E9EA816
:1011F000FED7AD6E100EE96E86C08CF085C08BF008
:101200005BDE7C0E9EA8FED7AD6E100EE96E88C028
:101210008CF087C08BF050DE7C0E9EA8FED7AD6EA2
:10122000100EE96E8AC08CF089C08BF045DE7C0E12
:101230009EA8FED7AD6E0A0E9EA8FED7AD6E2A0EF2
:10124000946FADDE7C0E946FAADE100EE96E84C042
:101250008CF083C08BF0B4DE7C0E946FA0DE100E99
:10126000E96E86C08CF085C08BF0AADE7C0E946F90
:1012700096DE100EE96E88C08CF087C08BF0A0DE81
:101280007C0E946F8CDE100EE96E8AC08CF089C0E3
:101290008BF096DE7C0E946F82DE0A0E946F7FDEFA
:0412A0001FD7030051
:020000040030CA
:0E000000240E3E1E008381000FC00FE00F4053
:00000001FF
;PIC18F2550
